{
  "abi": [
    {
      "inputs": [
        {
          "internalType": "string",
          "name": "happySvgImageUri",
          "type": "string"
        },
        {
          "internalType": "string",
          "name": "sadSvgImageUri",
          "type": "string"
        }
      ],
      "stateMutability": "nonpayable",
      "type": "constructor"
    },
    {
      "inputs": [],
      "name": "MoodNft__CantFlipMoodIfNotOwner",
      "type": "error"
    },
    {
      "anonymous": false,
      "inputs": [
        {
          "indexed": true,
          "internalType": "address",
          "name": "owner",
          "type": "address"
        },
        {
          "indexed": true,
          "internalType": "address",
          "name": "approved",
          "type": "address"
        },
        {
          "indexed": true,
          "internalType": "uint256",
          "name": "tokenId",
          "type": "uint256"
        }
      ],
      "name": "Approval",
      "type": "event"
    },
    {
      "anonymous": false,
      "inputs": [
        {
          "indexed": true,
          "internalType": "address",
          "name": "owner",
          "type": "address"
        },
        {
          "indexed": true,
          "internalType": "address",
          "name": "operator",
          "type": "address"
        },
        {
          "indexed": false,
          "internalType": "bool",
          "name": "approved",
          "type": "bool"
        }
      ],
      "name": "ApprovalForAll",
      "type": "event"
    },
    {
      "anonymous": false,
      "inputs": [
        {
          "indexed": true,
          "internalType": "address",
          "name": "from",
          "type": "address"
        },
        {
          "indexed": true,
          "internalType": "address",
          "name": "to",
          "type": "address"
        },
        {
          "indexed": true,
          "internalType": "uint256",
          "name": "tokenId",
          "type": "uint256"
        }
      ],
      "name": "Transfer",
      "type": "event"
    },
    {
      "inputs": [
        {
          "internalType": "address",
          "name": "to",
          "type": "address"
        },
        {
          "internalType": "uint256",
          "name": "tokenId",
          "type": "uint256"
        }
      ],
      "name": "approve",
      "outputs": [],
      "stateMutability": "nonpayable",
      "type": "function"
    },
    {
      "inputs": [
        {
          "internalType": "address",
          "name": "owner",
          "type": "address"
        }
      ],
      "name": "balanceOf",
      "outputs": [
        {
          "internalType": "uint256",
          "name": "",
          "type": "uint256"
        }
      ],
      "stateMutability": "view",
      "type": "function"
    },
    {
      "inputs": [
        {
          "internalType": "uint256",
          "name": "tokenId",
          "type": "uint256"
        }
      ],
      "name": "flipMood",
      "outputs": [],
      "stateMutability": "nonpayable",
      "type": "function"
    },
    {
      "inputs": [
        {
          "internalType": "uint256",
          "name": "tokenId",
          "type": "uint256"
        }
      ],
      "name": "getApproved",
      "outputs": [
        {
          "internalType": "address",
          "name": "",
          "type": "address"
        }
      ],
      "stateMutability": "view",
      "type": "function"
    },
    {
      "inputs": [
        {
          "internalType": "address",
          "name": "owner",
          "type": "address"
        },
        {
          "internalType": "address",
          "name": "operator",
          "type": "address"
        }
      ],
      "name": "isApprovedForAll",
      "outputs": [
        {
          "internalType": "bool",
          "name": "",
          "type": "bool"
        }
      ],
      "stateMutability": "view",
      "type": "function"
    },
    {
      "inputs": [],
      "name": "mintNft",
      "outputs": [],
      "stateMutability": "nonpayable",
      "type": "function"
    },
    {
      "inputs": [],
      "name": "name",
      "outputs": [
        {
          "internalType": "string",
          "name": "",
          "type": "string"
        }
      ],
      "stateMutability": "view",
      "type": "function"
    },
    {
      "inputs": [
        {
          "internalType": "uint256",
          "name": "tokenId",
          "type": "uint256"
        }
      ],
      "name": "ownerOf",
      "outputs": [
        {
          "internalType": "address",
          "name": "",
          "type": "address"
        }
      ],
      "stateMutability": "view",
      "type": "function"
    },
    {
      "inputs": [
        {
          "internalType": "address",
          "name": "from",
          "type": "address"
        },
        {
          "internalType": "address",
          "name": "to",
          "type": "address"
        },
        {
          "internalType": "uint256",
          "name": "tokenId",
          "type": "uint256"
        }
      ],
      "name": "safeTransferFrom",
      "outputs": [],
      "stateMutability": "nonpayable",
      "type": "function"
    },
    {
      "inputs": [
        {
          "internalType": "address",
          "name": "from",
          "type": "address"
        },
        {
          "internalType": "address",
          "name": "to",
          "type": "address"
        },
        {
          "internalType": "uint256",
          "name": "tokenId",
          "type": "uint256"
        },
        {
          "internalType": "bytes",
          "name": "data",
          "type": "bytes"
        }
      ],
      "name": "safeTransferFrom",
      "outputs": [],
      "stateMutability": "nonpayable",
      "type": "function"
    },
    {
      "inputs": [
        {
          "internalType": "address",
          "name": "operator",
          "type": "address"
        },
        {
          "internalType": "bool",
          "name": "approved",
          "type": "bool"
        }
      ],
      "name": "setApprovalForAll",
      "outputs": [],
      "stateMutability": "nonpayable",
      "type": "function"
    },
    {
      "inputs": [
        {
          "internalType": "bytes4",
          "name": "interfaceId",
          "type": "bytes4"
        }
      ],
      "name": "supportsInterface",
      "outputs": [
        {
          "internalType": "bool",
          "name": "",
          "type": "bool"
        }
      ],
      "stateMutability": "view",
      "type": "function"
    },
    {
      "inputs": [],
      "name": "symbol",
      "outputs": [
        {
          "internalType": "string",
          "name": "",
          "type": "string"
        }
      ],
      "stateMutability": "view",
      "type": "function"
    },
    {
      "inputs": [
        {
          "internalType": "uint256",
          "name": "tokenId",
          "type": "uint256"
        }
      ],
      "name": "tokenURI",
      "outputs": [
        {
          "internalType": "string",
          "name": "",
          "type": "string"
        }
      ],
      "stateMutability": "view",
      "type": "function"
    },
    {
      "inputs": [
        {
          "internalType": "address",
          "name": "from",
          "type": "address"
        },
        {
          "internalType": "address",
          "name": "to",
          "type": "address"
        },
        {
          "internalType": "uint256",
          "name": "tokenId",
          "type": "uint256"
        }
      ],
      "name": "transferFrom",
      "outputs": [],
      "stateMutability": "nonpayable",
      "type": "function"
    }
  ],
  "bytecode": {
    "object": "0x60806040523480156200001157600080fd5b5060405162001a3c38038062001a3c833981016040819052620000349162000182565b60405180604001604052806007815260200166135bdbd913999d60ca1b8152506040518060400160405280600281526020016126a760f11b81525081600090816200008091906200027b565b5060016200008f82826200027b565b50506000600655506007620000a582826200027b565b506008620000b483826200027b565b50505062000347565b634e487b7160e01b600052604160045260246000fd5b600082601f830112620000e557600080fd5b81516001600160401b0380821115620001025762000102620000bd565b604051601f8301601f19908116603f011681019082821181831017156200012d576200012d620000bd565b816040528381526020925086838588010111156200014a57600080fd5b600091505b838210156200016e57858201830151818301840152908201906200014f565b600093810190920192909252949350505050565b600080604083850312156200019657600080fd5b82516001600160401b0380821115620001ae57600080fd5b620001bc86838701620000d3565b93506020850151915080821115620001d357600080fd5b50620001e285828601620000d3565b9150509250929050565b600181811c908216806200020157607f821691505b6020821081036200022257634e487b7160e01b600052602260045260246000fd5b50919050565b601f8211156200027657600081815260208120601f850160051c81016020861015620002515750805b601f850160051c820191505b8181101562000272578281556001016200025d565b5050505b505050565b81516001600160401b03811115620002975762000297620000bd565b620002af81620002a88454620001ec565b8462000228565b602080601f831160018114620002e75760008415620002ce5750858301515b600019600386901b1c1916600185901b17855562000272565b600085815260208120601f198616915b828110156200031857888601518255948401946001909101908401620002f7565b5085821015620003375787850151600019600388901b60f8161c191681555b5050505050600190811b01905550565b6116e580620003576000396000f3fe608060405234801561001057600080fd5b50600436106100f55760003560e01c806370a0823111610097578063c1a147a011610066578063c1a147a0146101ff578063c2229fea14610212578063c87b56dd1461021a578063e985e9c51461022d57600080fd5b806370a08231146101b057806395d89b41146101d1578063a22cb465146101d9578063b88d4fde146101ec57600080fd5b8063095ea7b3116100d3578063095ea7b31461016257806323b872dd1461017757806342842e0e1461018a5780636352211e1461019d57600080fd5b806301ffc9a7146100fa57806306fdde0314610122578063081812fc14610137575b600080fd5b61010d610108366004611085565b610240565b60405190151581526020015b60405180910390f35b61012a610292565b60405161011991906110f9565b61014a61014536600461110c565b610324565b6040516001600160a01b039091168152602001610119565b610175610170366004611141565b61034b565b005b61017561018536600461116b565b610465565b61017561019836600461116b565b610496565b61014a6101ab36600461110c565b6104b1565b6101c36101be3660046111a7565b610511565b604051908152602001610119565b61012a610597565b6101756101e73660046111c2565b6105a6565b6101756101fa366004611214565b6105b5565b61017561020d36600461110c565b6105ed565b610175610671565b61012a61022836600461110c565b6106ab565b61010d61023b3660046112f0565b610884565b60006001600160e01b031982166380ac58cd60e01b148061027157506001600160e01b03198216635b5e139f60e01b145b8061028c57506301ffc9a760e01b6001600160e01b03198316145b92915050565b6060600080546102a190611323565b80601f01602080910402602001604051908101604052809291908181526020018280546102cd90611323565b801561031a5780601f106102ef5761010080835404028352916020019161031a565b820191906000526020600020905b8154815290600101906020018083116102fd57829003601f168201915b5050505050905090565b600061032f826108b2565b506000908152600460205260409020546001600160a01b031690565b6000610356826104b1565b9050806001600160a01b0316836001600160a01b0316036103c85760405162461bcd60e51b815260206004820152602160248201527f4552433732313a20617070726f76616c20746f2063757272656e74206f776e656044820152603960f91b60648201526084015b60405180910390fd5b336001600160a01b03821614806103e457506103e48133610884565b6104565760405162461bcd60e51b815260206004820152603d60248201527f4552433732313a20617070726f76652063616c6c6572206973206e6f7420746f60448201527f6b656e206f776e6572206f7220617070726f76656420666f7220616c6c00000060648201526084016103bf565b6104608383610911565b505050565b61046f338261097f565b61048b5760405162461bcd60e51b81526004016103bf9061135d565b6104608383836109de565b610460838383604051806020016040528060008152506105b5565b6000818152600260205260408120546001600160a01b03168061028c5760405162461bcd60e51b8152602060048201526018602482015277115490cdcc8c4e881a5b9d985b1a59081d1bdad95b88125160421b60448201526064016103bf565b60006001600160a01b03821661057b5760405162461bcd60e51b815260206004820152602960248201527f4552433732313a2061646472657373207a65726f206973206e6f7420612076616044820152683634b21037bbb732b960b91b60648201526084016103bf565b506001600160a01b031660009081526003602052604090205490565b6060600180546102a190611323565b6105b1338383610b42565b5050565b6105bf338361097f565b6105db5760405162461bcd60e51b81526004016103bf9061135d565b6105e784848484610c10565b50505050565b6105f7338261097f565b610614576040516385046ca760e01b815260040160405180910390fd5b60008181526009602052604081205460ff166001811115610637576106376113aa565b03610657576000908152600960205260409020805460ff19166001179055565b6000818152600960205260409020805460ff191690555b50565b61067d33600654610c43565b600680546000908152600960205260408120805460ff19169055815491906106a4836113d6565b9190505550565b6060806000808481526009602052604090205460ff1660018111156106d2576106d26113aa565b0361076957600880546106e490611323565b80601f016020809104026020016040519081016040528092919081815260200182805461071090611323565b801561075d5780601f106107325761010080835404028352916020019161075d565b820191906000526020600020905b81548152906001019060200180831161074057829003601f168201915b505050505090506107f7565b6007805461077690611323565b80601f01602080910402602001604051908101604052809291908181526020018280546107a290611323565b80156107ef5780601f106107c4576101008083540402835291602001916107ef565b820191906000526020600020905b8154815290600101906020018083116107d257829003601f168201915b505050505090505b60408051808201909152601e81527f646174613a6170706c69636174696f6e2f6a736f6e3b206261736536342c0000602082015261085c610836610292565b836040516020016108489291906113ef565b604051602081830303815290604052610c5d565b60405160200161086d929190611503565b604051602081830303815290604052915050919050565b6001600160a01b03918216600090815260056020908152604080832093909416825291909152205460ff1690565b6000818152600260205260409020546001600160a01b031661066e5760405162461bcd60e51b8152602060048201526018602482015277115490cdcc8c4e881a5b9d985b1a59081d1bdad95b88125160421b60448201526064016103bf565b600081815260046020526040902080546001600160a01b0319166001600160a01b0384169081179091558190610946826104b1565b6001600160a01b03167f8c5be1e5ebec7d5bd14f71427d1e84f3dd0314c0f7b2291e5b200ac8c7c3b92560405160405180910390a45050565b60008061098b836104b1565b9050806001600160a01b0316846001600160a01b031614806109b257506109b28185610884565b806109d65750836001600160a01b03166109cb84610324565b6001600160a01b0316145b949350505050565b826001600160a01b03166109f1826104b1565b6001600160a01b031614610a175760405162461bcd60e51b81526004016103bf90611532565b6001600160a01b038216610a795760405162461bcd60e51b8152602060048201526024808201527f4552433732313a207472616e7366657220746f20746865207a65726f206164646044820152637265737360e01b60648201526084016103bf565b826001600160a01b0316610a8c826104b1565b6001600160a01b031614610ab25760405162461bcd60e51b81526004016103bf90611532565b600081815260046020908152604080832080546001600160a01b03199081169091556001600160a01b0387811680865260038552838620805460001901905590871680865283862080546001019055868652600290945282852080549092168417909155905184937fddf252ad1be2c89b69c2b068fc378daa952ba7f163c4a11628f55a4df523b3ef91a4505050565b816001600160a01b0316836001600160a01b031603610ba35760405162461bcd60e51b815260206004820152601960248201527f4552433732313a20617070726f766520746f2063616c6c65720000000000000060448201526064016103bf565b6001600160a01b03838116600081815260056020908152604080832094871680845294825291829020805460ff191686151590811790915591519182527f17307eab39ab6107e8899845ad3d59bd9653f200f220920489ca2b5937696c31910160405180910390a3505050565b610c1b8484846109de565b610c2784848484610db0565b6105e75760405162461bcd60e51b81526004016103bf90611577565b6105b1828260405180602001604052806000815250610eb1565b60608151600003610c7c57505060408051602081019091526000815290565b60006040518060600160405280604081526020016116706040913990506000600384516002610cab91906115c9565b610cb591906115dc565b610cc09060046115fe565b67ffffffffffffffff811115610cd857610cd86111fe565b6040519080825280601f01601f191660200182016040528015610d02576020820181803683370190505b509050600182016020820185865187015b80821015610d6e576003820191508151603f8160121c168501518453600184019350603f81600c1c168501518453600184019350603f8160061c168501518453600184019350603f8116850151845350600183019250610d13565b5050600386510660018114610d8a5760028114610d9d57610da5565b603d6001830353603d6002830353610da5565b603d60018303535b509195945050505050565b60006001600160a01b0384163b15610ea657604051630a85bd0160e11b81526001600160a01b0385169063150b7a0290610df4903390899088908890600401611615565b6020604051808303816000875af1925050508015610e2f575060408051601f3d908101601f19168201909252610e2c91810190611652565b60015b610e8c573d808015610e5d576040519150601f19603f3d011682016040523d82523d6000602084013e610e62565b606091505b508051600003610e845760405162461bcd60e51b81526004016103bf90611577565b805181602001fd5b6001600160e01b031916630a85bd0160e11b1490506109d6565b506001949350505050565b610ebb8383610ee4565b610ec86000848484610db0565b6104605760405162461bcd60e51b81526004016103bf90611577565b6001600160a01b038216610f3a5760405162461bcd60e51b815260206004820181905260248201527f4552433732313a206d696e7420746f20746865207a65726f206164647265737360448201526064016103bf565b6000818152600260205260409020546001600160a01b031615610f9f5760405162461bcd60e51b815260206004820152601c60248201527f4552433732313a20746f6b656e20616c7265616479206d696e7465640000000060448201526064016103bf565b6000818152600260205260409020546001600160a01b0316156110045760405162461bcd60e51b815260206004820152601c60248201527f4552433732313a20746f6b656e20616c7265616479206d696e7465640000000060448201526064016103bf565b6001600160a01b038216600081815260036020908152604080832080546001019055848352600290915280822080546001600160a01b0319168417905551839291907fddf252ad1be2c89b69c2b068fc378daa952ba7f163c4a11628f55a4df523b3ef908290a45050565b6001600160e01b03198116811461066e57600080fd5b60006020828403121561109757600080fd5b81356110a28161106f565b9392505050565b60005b838110156110c45781810151838201526020016110ac565b50506000910152565b600081518084526110e58160208601602086016110a9565b601f01601f19169290920160200192915050565b6020815260006110a260208301846110cd565b60006020828403121561111e57600080fd5b5035919050565b80356001600160a01b038116811461113c57600080fd5b919050565b6000806040838503121561115457600080fd5b61115d83611125565b946020939093013593505050565b60008060006060848603121561118057600080fd5b61118984611125565b925061119760208501611125565b9150604084013590509250925092565b6000602082840312156111b957600080fd5b6110a282611125565b600080604083850312156111d557600080fd5b6111de83611125565b9150602083013580151581146111f357600080fd5b809150509250929050565b634e487b7160e01b600052604160045260246000fd5b6000806000806080858703121561122a57600080fd5b61123385611125565b935061124160208601611125565b925060408501359150606085013567ffffffffffffffff8082111561126557600080fd5b818701915087601f83011261127957600080fd5b81358181111561128b5761128b6111fe565b604051601f8201601f19908116603f011681019083821181831017156112b3576112b36111fe565b816040528281528a60208487010111156112cc57600080fd5b82602086016020830137600060208483010152809550505050505092959194509250565b6000806040838503121561130357600080fd5b61130c83611125565b915061131a60208401611125565b90509250929050565b600181811c9082168061133757607f821691505b60208210810361135757634e487b7160e01b600052602260045260246000fd5b50919050565b6020808252602d908201527f4552433732313a2063616c6c6572206973206e6f7420746f6b656e206f776e6560408201526c1c881bdc88185c1c1c9bdd9959609a1b606082015260800190565b634e487b7160e01b600052602160045260246000fd5b634e487b7160e01b600052601160045260246000fd5b6000600182016113e8576113e86113c0565b5060010190565b683d913730b6b2911d1160b91b815282516000906114148160098501602088016110a9565b7f222c20226465736372697074696f6e223a22416e204e465420746861742072656009918401918201527f666c6563747320746865206d6f6f64206f6620746865206f776e65722c20313060298201526e018129037b71021b430b4b71091161608d1b60498201527f2261747472696275746573223a205b7b2274726169745f74797065223a20226d60588201527f6f6f64696e657373222c202276616c7565223a203130307d5d2c2022696d616760788201526332911d1160e11b609882015283516114e881609c8401602088016110a9565b61227d60f01b609c9290910191820152609e01949350505050565b600083516115158184602088016110a9565b8351908301906115298183602088016110a9565b01949350505050565b60208082526025908201527f4552433732313a207472616e736665722066726f6d20696e636f72726563742060408201526437bbb732b960d91b606082015260800190565b60208082526032908201527f4552433732313a207472616e7366657220746f206e6f6e20455243373231526560408201527131b2b4bb32b91034b6b83632b6b2b73a32b960711b606082015260800190565b8082018082111561028c5761028c6113c0565b6000826115f957634e487b7160e01b600052601260045260246000fd5b500490565b808202811582820484141761028c5761028c6113c0565b6001600160a01b0385811682528416602082015260408101839052608060608201819052600090611648908301846110cd565b9695505050505050565b60006020828403121561166457600080fd5b81516110a28161106f56fe4142434445464748494a4b4c4d4e4f505152535455565758595a6162636465666768696a6b6c6d6e6f707172737475767778797a303132333435363738392b2fa264697066735822122070b2354b960c26c795c584e9082bd9684fc0c766923ce83aa6ead18de37cdfbc64736f6c63430008130033",
    "linkReferences": {}
  },
  "methodIdentifiers": {
    "approve(address,uint256)": "095ea7b3",
    "balanceOf(address)": "70a08231",
    "flipMood(uint256)": "c1a147a0",
    "getApproved(uint256)": "081812fc",
    "isApprovedForAll(address,address)": "e985e9c5",
    "mintNft()": "c2229fea",
    "name()": "06fdde03",
    "ownerOf(uint256)": "6352211e",
    "safeTransferFrom(address,address,uint256)": "42842e0e",
    "safeTransferFrom(address,address,uint256,bytes)": "b88d4fde",
    "setApprovalForAll(address,bool)": "a22cb465",
    "supportsInterface(bytes4)": "01ffc9a7",
    "symbol()": "95d89b41",
    "tokenURI(uint256)": "c87b56dd",
    "transferFrom(address,address,uint256)": "23b872dd"
  },
  "id": 32
}